:100000000C9452000C9464000C9464000C946400F2
:100010000C9464000C9464000C9464000C946400D0
:100020000C9464000C9464000C9464000C946400C0
:100030000C9464000C9464000C9464000C946400B0
:100040000C9464000C9464000C9464000C948D0374
:100050000C9495030C9464000C9464000C9464005C
:100060000C9464000C9464000C9464000C94640080
:100070000C946400000024272A000025282B00008F
:1000800023262904030404040404040202020203D4
:1000900003030301040204081020401020408040A4
:1000A0002010800011241FBECFEFD2E0DEBFCDBFF5
:1000B00012E0A0E0B1E001C01D92A837B107E1F75E
:1000C0000E943F030C94D2040C9400000F930FB7CE
:1000D0000F931F932F938F939F93CF93DF93EF9360
:1000E000FF930FEF1FEFCFE3D2E020E08A819B81E7
:1000F000019609F466C088819981E0913E02FF274C
:100100008E1B9F0B88839983059708F053C0822F1D
:10011000E3E8F0E0E80F80E0F81F8491922FE3E934
:10012000F0E0E90F90E0F91F9491E9E7F0E0E80FC3
:1001300080E0F81FE491F0E080818923F1F4E9F494
:10014000822FE3E8F0E0E80F80E0F81F8491922F1F
:10015000E3E9F0E0E90F90E0F91F9491E9E7F0E0BE
:10016000E80F80E0F81FE491F0E08081892B808324
:100170008A819B81888399831DC0822FE3E8F0E008
:10018000E80F80E0F81F8491922FE3E9F0E0E90F97
:1001900090E0F91F9491E9E7F0E0E80F80E0F81FA4
:1001A000E491F0E0808190958923808380E197E25B
:1001B0008883998388819981801B910B10F4088131
:1001C000198124962F5F87E0821B09F08FCF802F43
:1001D000912F019621F488B5865088BD11C0E9ECB5
:1001E000FF278E1B9F0B30F400933E0288B5800FD3
:1001F00088BD06C098EC90933E0288B5890F88BDF3
:10020000FF91EF91DF91CF919F918F912F911F914E
:100210000F910FBF0F910895FFCFCF93DF93FC0194
:100220001082C9018497840F951F92838183CA012C
:10023000820F931FFC0132977083F9013197E40F0D
:10024000F51F608322523040240F351FD90120E270
:10025000ED0119922A95E9F7DC011697EC93DC0180
:100260001597FC932FB783972068FC012083DF91BB
:10027000CF910895CF93DF93EC010E940D012FB72A
:10028000F894E0917602F0917702838194819C83C7
:100290008B83D483C3832FBFDF91CF910895CF93F6
:1002A000DF93C9E6D2E0CE016CE071E040E051E0BE
:1002B00020E830E00E940D01D0937302C0937202D7
:1002C000D0937502C09374028BE592E0909377020D
:1002D0008093760210925B0210925D0210925C0293
:1002E00090935F0280935E02DF91CF910895E09139
:1002F0007602F09177022381348105C08381948155
:1003000082179307B9F00380F481E02D808187FF85
:10031000F5CF858196810197968385838581968126
:10032000009761F780818E77808383819481821723
:10033000930749F70895A0917602B0917702FD01E5
:1003400020E030E00380F481E02D882319F09081D3
:1003500097FD14C0908190FD03C021153105E9F08F
:100360006381748113964D915C911497641775079E
:1003700049F721153105A9F0C90108954581568134
:100380004150504056834583458156814115510562
:1003900009F790819E779083DDCF882371F09F01CC
:1003A000DFCF13968D919C91149790936D0280935B
:1003B0006C0229E632E0C90108959F01DACF009767
:1003C000D1F0E0917602F0917702968385839FB712
:1003D000F894809168028F5F809368029FBF8FB707
:1003E000F894E0917602F091770291E890838FBFC4
:1003F0000E948A0208959FB7F894809168028F5FE7
:10040000809368029FBF0E948A020895DF93CF9372
:10041000BF93AF939F938F937F936F935F934F930C
:100420003F932F931F930F93FF92EF92DF92CF9200
:10043000BF92AF929F928F927F926F925F924F92F4
:100440003F922F921F920F92AFB7A068AF93009088
:100450006802002041F4C0917602D0917702ADB7D6
:10046000BEB7A983BA83AF93AF93FF93EF93CDB792
:10047000DEB7ADA1BCA1AC83BB83EF91ECA3FF9130
:10048000FDA3112408950F900F90A0916802AA2354
:10049000B1F481E011240FB60F92F8944CDF0F9065
:1004A0000FBEC82FD92FC0937602D0937702A981AF
:1004B000BA810FB6F894BEBFADBF0FBE07C01124FE
:1004C0000FB60F92F89413DF0F900FBE0F9007989E
:1004D0000FBE0F901F902F903F904F905F906F90A6
:1004E0007F908F909F90AF90BF90CF90DF90EF90D4
:1004F000FF900F911F912F913F914F915F916F91BD
:100500007F918F919F91AF91BF91CF91DF91EF91AB
:10051000FF911895FF93EF93DF93CF93BF93AF9322
:100520009F938F937F936F935F934F933F932F93FB
:100530001F930F93FF92EF92DF92CF92BF92AF92F1
:100540009F928F927F926F925F924F923F922F92E3
:100550001F920F92AFB7A068AF93C0917602D0916F
:100560007702ADB7BEB7A983BA83882711240FB627
:100570000F92F894E0DE0F900FBEC82FD92FA981FB
:10058000BA810FB6F894C0937602D0937702BEBFBB
:10059000ADBFA0916802AA950FBEA09368020F900C
:1005A00007980FBE0F901F902F903F904F905F9035
:1005B0006F907F908F909F90AF90BF90CF90DF9083
:1005C000EF90FF900F911F912F913F914F915F916D
:1005D0006F917F918F919F91AF91BF91CF91DF915B
:1005E000EF91FF9118958091800190918101A091E8
:1005F0008201B09183010097A105B10511F08FEF41
:1006000001C080E088B9EFCFDF92EF92FF920F93A5
:100610001F9395E0D92E81E0E82EF12C012D112DAC
:1006200088EE93E00E94DF01109280011092810118
:10063000109282011092830182E061E00E94B40373
:1006400085E062E30E94190488EE93E00E94DF01D6
:1006500082E060E00E94B40385E064E60E94190431
:10066000E0928001F0928101009382011093830156
:10067000DA94B1F688EE93E00E94DF01FBCFCF93CE
:10068000DF9382E061E00E9498038FE061E00E94C6
:1006900098038091D00084608093D0008091D00036
:1006A00081608093D00080E88093610010926100A7
:1006B00018B887B983E085BD8AEF87BD8FEF88BD05
:1006C00080916E00866080936E000E944F010E94B0
:1006D0006C04789484ED91E063EF72E044E851E0BB
:1006E00020E530E00E943A0181E392E064E073E0AB
:1006F00041EE51E020E530E00E943A01C0E0D0E058
:1007000086E06C2F0E94190484EF91E00E94DF01C3
:100710002296C43BD10594F7F3CF78940E94060249
:1007200087B5865087BD0E9443020E9466001895D7
:1007300090E0FC01ED56FF4F2491FC01ED57FF4F77
:10074000E491EE2381F0F0E0EC58FF4F8591949115
:10075000DC01662329F48C91209582238C930895E3
:100760008C91822B8C93089590E0FC01ED56FF4F05
:100770002491FC01ED57FF4FE491EE2381F0F0E06E
:10078000E758FF4F85919491DC01662329F48C9101
:10079000209582238C9308958C91822B8C930895BD
:1007A0002F923F924F925F926F927F928F929F9281
:1007B000AF92BF92CF92DF92EF92FF920F931F936F
:1007C000DF93CF93CDB7DEB73B014C0119012A016E
:1007D0006D897E898F89988D6A197B098C099D099D
:1007E000621A730A840A950AA40193010E947C0488
:1007F000A801970122193309440955090E9495045B
:100800002A0D3B1D4C1D5D1DB901CA01CF91DF9121
:100810001F910F91FF90EF90DF90CF90BF90AF901E
:100820009F908F907F906F905F904F903F902F9010
:1008300008959F92AF92BF92CF92DF92EF92FF9274
:100840000F931F93982E00D000D070E080E090E0CE
:1008500020E639E040E050E0EDB7FEB72183328377
:100860004383548320E030E0A901F4EBEF2EF12C18
:10087000012D112DE0E2AE2EE2E0BE2EC12CD12CD6
:100880000E94D003E92DF0E0EE0FFF1FEE0FFF1FD7
:10089000E15CFD4F34E0660F771F881F991F3A9582
:1008A000D1F726E096958795779567952A95D1F7A4
:1008B000738362830F900F900F900F90892D61E0EA
:1008C0000E9498031F910F91FF90EF90DF90CF90BF
:1008D000BF90AF909F900895EFE3F2E020E335E7FB
:1008E0008FEF9FEF3183208393838283349642E09E
:1008F000EB35F407B9F70895FF27EE27BB27AA27A2
:1009000060FF04C0A20FB31FE41FF51F220F331FA7
:10091000441F551F969587957795679589F700979A
:10092000760771F7CF01BD01089597FB092E0526C3
:100930000ED057FD04D014D00AD0001C38F45095C6
:100940004095309521953F4F4F4F5F4F0895F6F7F3
:1009500090958095709561957F4F8F4F9F4F08952B
:10096000A1E21A2EAA1BBB1BFD010DC0AA1FBB1FB3
:10097000EE1FFF1FA217B307E407F50720F0A21B25
:10098000B30BE40BF50B661F771F881F991F1A9492
:1009900069F760957095809590959B01AC01BD01BC
:0809A000CF010895F894FFCF88
:00000001FF
